{
    "contractName": "Raffle",
    "abi": [
        {
            "inputs": [
                {
                    "internalType": "uint256",
                    "name": "entranceFee",
                    "type": "uint256"
                },
                {
                    "internalType": "uint256",
                    "name": "interval",
                    "type": "uint256"
                },
                {
                    "internalType": "address",
                    "name": "vrfCoodinator",
                    "type": "address"
                },
                {
                    "internalType": "bytes32",
                    "name": "gasLane",
                    "type": "bytes32"
                },
                {
                    "internalType": "uint64",
                    "name": "subscriptionId",
                    "type": "uint64"
                },
                {
                    "internalType": "uint32",
                    "name": "callbackGasLimit",
                    "type": "uint32"
                }
            ],
            "stateMutability": "nonpayable",
            "type": "constructor"
        },
        {
            "inputs": [
                {
                    "internalType": "address",
                    "name": "have",
                    "type": "address"
                },
                {
                    "internalType": "address",
                    "name": "want",
                    "type": "address"
                }
            ],
            "name": "OnlyCoordinatorCanFulfill",
            "type": "error"
        },
        {
            "inputs": [],
            "name": "Raffle__NotEnoughEthSent",
            "type": "error"
        },
        {
            "inputs": [],
            "name": "Raffle__NotOpen",
            "type": "error"
        },
        {
            "inputs": [],
            "name": "Raffle__TransferFailed",
            "type": "error"
        },
        {
            "inputs": [
                {
                    "internalType": "uint256",
                    "name": "currentBalance",
                    "type": "uint256"
                },
                {
                    "internalType": "uint256",
                    "name": "lengthOfPlayers",
                    "type": "uint256"
                },
                {
                    "internalType": "uint256",
                    "name": "stateOfRaffle",
                    "type": "uint256"
                }
            ],
            "name": "Raffle__upkeedNotNeeded",
            "type": "error"
        },
        {
            "anonymous": false,
            "inputs": [
                {
                    "indexed": false,
                    "internalType": "address",
                    "name": "player",
                    "type": "address"
                }
            ],
            "name": "PlayerEntered",
            "type": "event"
        },
        {
            "anonymous": false,
            "inputs": [
                {
                    "indexed": false,
                    "internalType": "address",
                    "name": "pickedWinner",
                    "type": "address"
                }
            ],
            "name": "WinnerPicked",
            "type": "event"
        },
        {
            "inputs": [],
            "name": "checkUpkeep",
            "outputs": [
                {
                    "internalType": "bool",
                    "name": "upkeepNeeded",
                    "type": "bool"
                },
                {
                    "internalType": "bytes",
                    "name": "performData",
                    "type": "bytes"
                }
            ],
            "stateMutability": "view",
            "type": "function"
        },
        {
            "inputs": [],
            "name": "enterRaffle",
            "outputs": [],
            "stateMutability": "payable",
            "type": "function"
        },
        {
            "inputs": [],
            "name": "getEntranceFee",
            "outputs": [
                {
                    "internalType": "uint256",
                    "name": "",
                    "type": "uint256"
                }
            ],
            "stateMutability": "view",
            "type": "function"
        },
        {
            "inputs": [
                {
                    "internalType": "bytes",
                    "name": "",
                    "type": "bytes"
                }
            ],
            "name": "performUpkeep",
            "outputs": [],
            "stateMutability": "nonpayable",
            "type": "function"
        },
        {
            "inputs": [],
            "name": "pickerWinner",
            "outputs": [],
            "stateMutability": "nonpayable",
            "type": "function"
        },
        {
            "inputs": [
                {
                    "internalType": "uint256",
                    "name": "requestId",
                    "type": "uint256"
                },
                {
                    "internalType": "uint256[]",
                    "name": "randomWords",
                    "type": "uint256[]"
                }
            ],
            "name": "rawFulfillRandomWords",
            "outputs": [],
            "stateMutability": "nonpayable",
            "type": "function"
        }
    ],
    "bytecode": "61016060405234801561001157600080fd5b50604051610ac3380380610ac383398101604081905261003091610087565b6001600160a01b0393909316608081905260a09590955260c0939093524260015560e093909352610100929092526001600160401b03166101205263ffffffff16610140526002805460ff60a01b19169055610112565b60008060008060008060c087890312156100a057600080fd5b86516020880151604089015191975095506001600160a01b03811681146100c657600080fd5b6060880151608089015191955093506001600160401b03811681146100ea57600080fd5b60a088015190925063ffffffff8116811461010457600080fd5b809150509295509295509295565b60805160a05160c05160e05161010051610120516101405161094361018060003960006103c30152600061038c015260006103660152600061040101526000818161030a0152610476015260008181606c01526101ab015260008181610127015261016901526109436000f3fe6080604052600436106100555760003560e01c806309bc33a71461005a5780631fe543e31461009a5780632cfcc539146100bc5780634585e33b146100c457806348a304f9146100e4578063a13abdad146100f9575b600080fd5b34801561006657600080fd5b506040517f000000000000000000000000000000000000000000000000000000000000000081526020015b60405180910390f35b3480156100a657600080fd5b506100ba6100b53660046106eb565b61011c565b005b6100ba6101a9565b3480156100d057600080fd5b506100ba6100df3660046107b5565b61029f565b3480156100f057600080fd5b506100ba610308565b34801561010557600080fd5b5061010e61046e565b604051610091929190610827565b336001600160a01b037f0000000000000000000000000000000000000000000000000000000000000000161461019b5760405163073e64fd60e21b81523360048201526001600160a01b037f00000000000000000000000000000000000000000000000000000000000000001660248201526044015b60405180910390fd5b6101a58282610518565b5050565b7f00000000000000000000000000000000000000000000000000000000000000003410156101ea5760405163246b904d60e01b815260040160405180910390fd5b600060028054600160a01b900460ff169081111561020a5761020a61087f565b146102285760405163050955c760e21b815260040160405180910390fd5b600080546001810182559080527f290decd9548b62a8d60345a988386fc84ba6bc95484008f6362f93160ef3e5630180546001600160a01b031916339081179091556040519081527f4d999952f9aa655a216ee2df5968ca0e670e9582ddc96cfe7d8168114b8ca37f9060200160405180910390a1565b60006102a961046e565b509050806103035747600080549050600260149054906101000a900460ff1660028111156102d9576102d961087f565b60405163063143db60e41b8152600481019390935260248301919091526044820152606401610192565b505050565b7f0000000000000000000000000000000000000000000000000000000000000000600154426103379190610895565b101561034257600080fd5b60028054600160a11b60ff60a01b199091161790556040516305d3b1d360e41b81527f000000000000000000000000000000000000000000000000000000000000000060048201527f000000000000000000000000000000000000000000000000000000000000000067ffffffffffffffff166024820152600360448201527f000000000000000000000000000000000000000000000000000000000000000063ffffffff166064820152600160848201526000906001600160a01b037f00000000000000000000000000000000000000000000000000000000000000001690635d3b1d309060a4016020604051808303816000875af115801561044a573d6000803e3d6000fd5b505050506040513d601f19601f820116820180604052508101906101a591906108bc565b6000606060007f0000000000000000000000000000000000000000000000000000000000000000600154426104a39190610895565b1015905060008060028054600160a01b900460ff16908111156104c8576104c861087f565b600054911491504715159015158380156104df5750825b80156104e85750815b80156104f15750805b60408051808201909152600381526203078360ec1b60208201529097909650945050505050565b6000805482518390839061052e5761052e6108d5565b602002602001015161054091906108eb565b90506000808281548110610556576105566108d5565b600091825260208083209190910154600280546001600160a81b0319166001600160a01b039092169182179055604080518481529283019081905291519093506105a192919061065b565b50426001556040516000906001600160a01b0383169047908381818185875af1925050503d80600081146105f1576040519150601f19603f3d011682016040523d82523d6000602084013e6105f6565b606091505b50509050806106185760405163a1d04b3960e01b815260040160405180910390fd5b6040516001600160a01b03831681527f5b690ec4a06fe979403046eaeea5b3ce38524683c3001f662c8b5a829632f7df9060200160405180910390a15050505050565b8280548282559060005260206000209081019282156106b0579160200282015b828111156106b057825182546001600160a01b0319166001600160a01b0390911617825560209092019160019091019061067b565b506106bc9291506106c0565b5090565b5b808211156106bc57600081556001016106c1565b634e487b7160e01b600052604160045260246000fd5b600080604083850312156106fe57600080fd5b8235915060208084013567ffffffffffffffff8082111561071e57600080fd5b818601915086601f83011261073257600080fd5b813581811115610744576107446106d5565b8060051b604051601f19603f83011681018181108582111715610769576107696106d5565b60405291825284820192508381018501918983111561078757600080fd5b938501935b828510156107a55784358452938501939285019261078c565b8096505050505050509250929050565b600080602083850312156107c857600080fd5b823567ffffffffffffffff808211156107e057600080fd5b818501915085601f8301126107f457600080fd5b81358181111561080357600080fd5b86602082850101111561081557600080fd5b60209290920196919550909350505050565b821515815260006020604081840152835180604085015260005b8181101561085d57858101830151858201606001528201610841565b506000606082860101526060601f19601f830116850101925050509392505050565b634e487b7160e01b600052602160045260246000fd5b818103818111156108b657634e487b7160e01b600052601160045260246000fd5b92915050565b6000602082840312156108ce57600080fd5b5051919050565b634e487b7160e01b600052603260045260246000fd5b60008261090857634e487b7160e01b600052601260045260246000fd5b50069056fea26469706673582212203d7d29aa8c90c5a342bea3b935b2f4160bc9f0dc47296825f67cc6619f982cfa64736f6c63430008130033",
    "sourcePath": "/home/jatique/linux-development/blockchain-development/foundry-dev/foudry-patrick-collins/foundry-smart-contract-lottery/src/Raffle.sol",
    "compiler": {
        "name": "solc",
        "version": "0.8.19+commit.7dd6d404"
    },
    "functionHashes": {
        "checkUpkeep()": "a13abdad",
        "enterRaffle()": "2cfcc539",
        "getEntranceFee()": "09bc33a7",
        "performUpkeep(bytes)": "4585e33b",
        "pickerWinner()": "48a304f9",
        "rawFulfillRandomWords(uint256,uint256[])": "1fe543e3"
    },
    "gasEstimates": {
        "creation": {
            "codeDepositCost": "474200",
            "executionCost": "infinite",
            "totalCost": "infinite"
        },
        "external": {
            "checkUpkeep()": "infinite",
            "enterRaffle()": "infinite",
            "getEntranceFee()": "infinite",
            "performUpkeep(bytes)": "infinite",
            "pickerWinner()": "infinite",
            "rawFulfillRandomWords(uint256,uint256[])": "infinite"
        },
        "internal": {
            "fulfillRandomWords(uint256,uint256[] memory)": "infinite"
        }
    }
}